:020000003F2996
:10000600410DC80DC90D4408C8024508031C450F1B
:10001600C902C00DC10D0F30CC00410DC80DC90D70
:100026004408401C1C28C8024508031C450FC90289
:100036002128C80745080318450FC907C00DC10D7B
:10004600CC0B102840182D284408C807450803186B
:08005600450FC9070000080076
:10005E0083124408003A031D3D284508003A031D4B
:10006E003D28FF30C0007F30C10096288312031355
:10007E00CD01C901C80141084004031900344108EB
:10008E004506CA00CA1BCD09CB01C51F5328C4099A
:10009E00C509C40A0319C50AC11F5A28C009C109D6
:1000AE00C00A0319C10A41084504CA00CA1B6F28B9
:1000BE0003204B188228CD1F0034C009C109C00A85
:1000CE000319C10AC809C909C80A0319C90A0034A3
:1000DE00C51F7E28C11B7A284108C9004008C800E8
:1000EE00C101C0016228C101C001C00A0034C109AA
:1000FE00C009CB0A5F28C80A0319C90A4408480276
:10010E00031D622845084902031D6228C901C80162
:10011E00C00A0319C10AC11F62280000FF3408007B
:0C012E00831217088A00160882000800DF
:10013A0097208A110A128000840A960A0319970ADC
:08014A00C003031D9D280800FD
:10015200E8308312C4000330C5001E08C0001F0827
:10016200C1002F2040089C0041089D00E830C400D7
:100172000330C5001E08C0001F08C1002F20480818
:10018200C0004908C1006430C4000030C5002F20FF
:100192004008A0004108A1006430C4000030C5003E
:1001A2001E08C0001F08C1002F204808C0004908CF
:1001B200C1000A30C4000030C5002F20400898005A
:1001C200410899000A30C4000030C5001E08C00072
:1001D2001F08C1002F204808C0004908C10040087C
:0801E2009A0041089B0008008F
:1001EA0083121C080C3E84000008860005140D309A
:1001FA00CC00FB30CD00CD0B0029CC0B0029000030
:10020A000000051020080C3E8400000886008514B2
:10021A000D30CC00FB30CD00CD0B1129CC0B1129B0
:10022A0000000000851018080C3E840000088600B3
:10023A0005150D30CC00FB30CD00CD0B2229CC0B9F
:10024A0022290000000005111A080C3E840000084B
:10025A00860085150D30CC00FB30CD00CD0B33293F
:0C026A00CC0B33290000000085110800B7
:080276008316850186010800D2
:10027E00C03083128C00F9308D00A4308E00B03067
:10028E008F00993090009230910082309200F830B9
:10029E0093008030940090309500850186013B21BB
:1002AE009E019F018030173AC00080301F06400229
:1002BE00031D63291E08473C031C7C29A920A201AB
:1002CE00A30180302306C00080304002031D712937
:1002DE003230220203187829F520A20A0319A30A44
:0C02EE0068299E0A03199F0A59297C29DF
:02400E00FA3F77
:00000001FF
